:100000006F000049000000003A0100003C010000C0
:1000100000000000000000000000000000000000E0
:1000200000000000000000000000000000000000D0
:100030008E040000000000008E040000000000009C
:100040008E0400008E0400008E0400008E04000068
:100050008E0400008E0400008E0400008E04000058
:100060008E0400008E0400008E0400008E04000048
:100070008E0400008E0400008E0400008E04000038
:100080008E0400008E0400008E0400008E04000028
:100090008E0400008E0400008E0400008E04000018
:0800A0008E04000000000000C6
:1000A800511126C022C206C4828282441244A24050
:1000B80031018280634E050263C305042E86AA853A
:1000C8007D5515C285466378B6006356C00006069E
:1000D8008606E36CB6FE014563E4C500918D558D37
:1000E80085820582F5FA82808682C93F2E858282C2
:1000F8003305A0406347B000B305B040C1B7B305AE
:10010800B0408682653F3305A0408282868263C7FD
:100118000500634905005D372E858282B305B0402E
:10012800E35B05FE3305A040513F3305B0408282B2
:10013800000001A0B707EFBE37E700E09387070884
:100148003CC701A09305F00337150140B1A1EFF2B8
:100158003FF551118545414502C002C202C4EF0076
:10016800007C9307F0037C80C1473EC48A8585479D
:10017800371501403EC24526930700048A857C80D6
:1001880037150140930780043EC47126653F31014D
:1001980029BFEFF2FFF02A84753785679387C71F59
:1001A8003385870000219377140089C78545371563
:1001B8000140ED269377240089C78945371501400A
:1001C800F12E9377440089C7914537150140F926E8
:1001D8009377840089C7A14537150140C1269377D5
:1001E800040189C7C145371501404D2E1374040217
:1001F80011C493050002371501404D267DB59307BC
:10020800F5FF93F7F70F15476363F70059B7828037
:10021800056781471307F77637060020639CA70018
:1002280082808326060485062320D6048246850616
:1002380036C019A0711102C08246E374D7FE850743
:10024800E39BA7FE11018280EFF29FE537070020AC
:10025800B707002003A507048327070099453D8DAC
:10026800B757C6419387D7E63305F5028D6793875D
:1002780097033E95060505812320A700B53505059A
:100288001375F50F1DB5EFF2BFE12144753F853FAA
:100298007D14130540061374F40F9D3F65F831B5BE
:1002A800EFF21FE07111BD2A0545E53571651305AB
:1002B8000520EF00A07405651305C510EF00F05E7A
:1002C800793505651305C513EF00305E054485646F
:1002D800A28513854415EF00305B1375F40F0537BD
:1002E80013052003353705049D47E313F4FE054540
:1002F8004D3505651305C516EF00305B056513051B
:100308004519EF00905A8547856493050004371511
:1003180001403EC0A52C824705472A84639DE70219
:100328001DE91385441CEF00505813052003CD35F3
:10033800993F193F2AC0E135824505651305851E99
:10034800EF0090549305000437150140812401C93A
:100358001305800C753D0545653DA2877DB7294588
:10036800453DCDB7EFF2DFD38946B72702403714B2
:10037800024094C31C403707FF68C17493E7170015
:100388001CC05C40FD14F98F5CC01C403707D7FEC9
:100398006D17F98F37071000D98F1CC01C4037071D
:1003A800FCFF7D17F98F1CC05C40E58F5CC0B70768
:1003B8009D001CC41C4C93E707021CCCB7170140D6
:1003C8009387074098431377F7F098C398431367C8
:1003D800070898C394CBE9225C4037070001B706A9
:1003E80000025CC05C40E58F5CC05C405CC01C40A7
:1003F800D98F1CC0B71702409843758F75DFD84353
:10040800B7160240719BD8C3D84313672700D8C3D7
:100418002147DC42B18BE39EE7FEB727024009473C
:1004280098C361B1371702405C43A146B18B639210
:10043800D7045C433775DC02130505C0B7160240C4
:10044800D842B70700209387470011833D8BBA979E
:100458009C23D84293F5F70F13770708B357F50095
:1004680011EFEFF2FFC3993937070020232AA700BD
:100478002DB937356E0113050560C9B73707002058
:10048800232AF700828001A0970100209381013B75
:1004980017210020130181B617150000130545DC4C
:1004A80097050020938585B517060020130606B921
:1004B80063FAC5008322050023A0550011059105A4
:1004C800E3EAC5FE17050020130545B79705002088
:1004D800938505B76377B500232005001105E36D03
:1004E800B5FE896293820288739002308D427390C0
:1004F800428097020000938262B093E232007390C8
:100508005230EFF03FE6970200009382A2D9739031
:10051800123473002030944593F7060113F3F60064
:1005280081C7DC413363F30083D2050093F7F20FF0
:10053800A9CF0C41611122C226C0814793038002D2
:100548003D449304800405473317F70033F6E2006F
:100558006310C7026397760258C9139627003317AA
:10056800C4001347F7FF6D8F3316C300B365E60069
:1005780085072147E399E7FC12440CC18244210115
:100588008280E39C96FC18C9C9BF82801C4533F55C
:10059800F5003335A00082800CC982804CC9828066
:1005A800EFF21FB0511185451305C00302C002C206
:1005B80002C4B526B7F7FF1F03A74770B706520056
:1005C800938606609377F7F06385D70A63E1F60CA4
:1005D800B706240093860660638FD71E63EFF60282
:1005E800B706220093860660638ED72463EFF60071
:1005F800C1779387F7F0F98F370720001307076053
:10060800639BE7009307900F2DA837072300130774
:1006180007606383E720310149BCB7065000938621
:1006280006606383D71A63E0F604C1779387F7F00F
:100638007D8FB707400093870760E39EE7FC930729
:10064800900E371401407C808A8593078002130539
:1006580004803EC4C9359307F0077C808A8513055A
:1006680004C0553D4DBF3707510013070760E39499
:10067800E7FA93079006371401407C808A85930730
:100688008002130504803EC47935AD47F9B73707B2
:10069800640013070760E387E7F66361F706370727
:1006A800620013070760E38CE7F86364F704370711
:1006B800530013070760638DE70C370761001307C2
:1006C8000760E39AE7F493070008371401407C8039
:1006D8008A8593078002130504803EC42D3D930745
:1006E80040078A85130504C07C8035359307800C44
:1006F800ADA0370763001307076081B7371773008A
:10070800130707806386E702636BF70037177000EB
:10071800130707806388E704370771004DB7371759
:10072800740013070780E398E7EE9307000C71BF86
:100738009307000C371401407C808A859307800258
:10074800130504803EC4C13B930740078A851305FF
:1007580004C07C80C9339307900C7C808A85371548
:10076800014001B79307000C371401407C808A854B
:1007780093078002130504803EC4713B930740072A
:100788008A85130504C07C8079339307B00CF1B7D0
:1007980093079006371401407C808A85930780026E
:1007A800130504803EC4853BAD478A85130504C004
:1007B8007C8095339307C0028A85371501407C8079
:1007C800993B9307C006A1A09307800C7C809307F0
:1007D80080023EC461B79307900F371401407C80B4
:1007E8008A8593078002130504803EC42D3393073E
:1007F800F0078A85130504C07C80313B9307900E6F
:100808008A85371501407C8039339307D0087C806E
:100818008A8513050440B1B59307900F371401403A
:100828007C808A8593078002130504803EC4E531E5
:100838009307F0078A85130504C07C80E93993077C
:1008480060029DBF9307900F371401407C808A8512
:1008580093078002130504803EC475399307F00797
:100868008A85130504C07C807D31930700028A8540
:10087800371501407C804531B54751BFEFF25F82A3
:10088800371702405C43A1462A84B18B6394D7088A
:100898005C43B777DC02938707C01CC03716024059
:1008A8005442370700201307C7029182BD8A369742
:1008B800082358429375F50F1377070833D5A70017
:1008C80001E73E85EFF08FFF48C008C448C4B7175A
:1008D8000240DC438D46AD83FD8B13D737008A0772
:1008E800F18BD98F13F6370113F7370063F4C6007D
:1008F800138747FFB7170240DC4363CA0700B707EF
:10090800002093878701BA978C23EFF02FFB08C844
:100918006FF0AFF9B7376E0193870760BDBF99C510
:10092800371702401C4FC98F1CCF8280B71702406F
:10093800984F1345F5FF798D88CF8280EFF24FF6F7
:100948001629F577FD17FD8EFE21DA252111D58FA1
:100958001EA95625FD779387379FFD8EDE212A84B1
:10096800AE84D58F9625D58FB625D58F5EA55E2901
:10097800C207C18393F7F7CFD98F5EA94800FD3D21
:10098800B7470140938707806315F404C24765455C
:100998003385A7028C408A05EFF04FF29305400695
:1009A8002AC0EFF0AFF193144500024593054006C5
:1009B800EFF08FF312059305400613052503EFF0BA
:1009C800EFEF3D89458D420541810AA461016FF031
:1009D800CFEDB2476DBF5E2589C50967D98F5EA582
:1009E800828079777D17F98FDDBF93F5F51F4EA1CA
:1009F80082800A216D8D3335A0008280EFF24FEAA4
:100A08002A8411651111854513050502093F9307CD
:100A180000027C803715014085473EC28A85E14740
:100A2800130505403EC4C53C22C637440140B707FC
:100A380008006C00130504803ECA02C8231C01008C
:100A4800F53D854513050480793771016FF0EFE5B1
:100A5800EFF20FE561112EC232C00144824763589C
:100A6800F402B7440140B7470140930500041385D9
:100A7800078041376DD9924713850480B386870074
:100A8800838506000504C205C1818537C1BF0245BB
:100A980021016FF08FE1411106C62EC00DCD18411E
:100AA800AA8705C358417D5511CB8546631BD700DE
:100AB80098472300070023A207000545B2404101DB
:100AC80082809847824614A39847050798C7D84359
:100AD8007D17D8C3DDB705468A859D3FF9BF01114B
:100AE80026CA06CE22CC2AC02EC2B28493F716009C
:100AF800634D06082E853EC63AC43684DD2B224750
:100B0800B2472A83635195086351E504998C13040D
:100B18000002C1EFA687634FF006A68763D30400DF
:100B280081479D8C635BE30233076740BA860245C1
:100B3800930500033AC83EC636C4B13FA246B24741
:100B48004247FD16EDF6BA9709A8898C098861D045
:100B58005DFF95CF8147130400033E871246B30615
:100B6800F740B29683850600B9E1A6876349F00489
:100B7800268663D304000146F2406244D24433051A
:100B8800E600056182808144D1B7014349B7130467
:100B9800000349B70245A2853AC81AC63EC4E53DD6
:100BA800A24742473243FD17BDB78147A5BF02455B
:100BB8003AC63EC4CD353247A247050745B7024578
:100BC800A2853AC43EC2C13D92472247FD1779BF6C
:100BD800397126DA06DE22DC2AC03EC42E83BA84A6
:100BE80091EDA24693070003014726866C08FC8610
:100BF800FD35F2506254D25421618280B285368428
:100C080091CA294701446317E6006355030033037B
:100C1800604005448647A3090102130731039387FF
:100C280067FC3EC61A853ACA2EC81AC2EFF0CFCB67
:100C3800A5471243C245524763D4A700B2473E9521
:100C4800130505039307F7FFA30FA7FE1A853ACCF0
:100C58002ECA1AC83EC2EFF06FC64243D245624759
:100C68006376B30411C8B1C4A247898BB9C30245DE
:100C78009305D002FD140535A247918B85C306471D
:100C880093071006024593050003631EF7022135FA
:100C98009305800702450904F914F53B1647A24657
:100CA800924502452686253D2295A1B712472A83FB
:100CB80095BF92469307D0020144A38FF6FE93078F
:100CC800E7FF3EC255BFC13B93058005E1B701452B
:100CD800828001458280130181FD22D006D226CE72
:100CE8002AC62EC4328302C80144A247838507005E
:100CF80089EDB24781C781453E85713B9250228577
:100D08000254F24413018102828093075002638BDC
:100D1800F50032451ACA0504BD3B5243A247850770
:100D28003EC4E1B7A2479384170083871700639AEC
:100D3800B7003245930550021ACA0504A93B26C4D8
:100D4800E9BFC5DB1307D0026387E702634CF700EE
:100D580013073002638EE7041307B0026386E704C3
:100D6800814731A813070003E39CE7FEA247938459
:100D78002700894729A0A24793842700854703872E
:100D880004009306D0026301D70463C8E602930601
:100D98003002630ED7029306B002630CD70226C452
:100DA8000145A546A94281A0A247938427004DBFCB
:100DB800A247938427009147D9B793060003E3100D
:100DC800D7FE93E7270031A085048547C9BF93E77D
:100DD80047008504E9B733055502620761873A95EC
:100DE800224705073AC4224703060700130706FDF2
:100DF8009375F70FE3F1B6FE1307E0029946631205
:100E0800E60222478146254605073AC4A9452247F6
:100E180003070700130707FD9372F70F637A56025B
:100E280036C822471306C006030707006302C70433
:100E38006349E602130680066306C7081306A00680
:100E4800630BC7081306C0046307C708014635A823
:100E5800B386B60262076187BA96224705073AC485
:100E68007DB7130640076308C7061306A007E9BF46
:100E78002246830516000D466396E5002247114673
:100E880005073AC4224705073AC4224793050006D6
:100E98000307070063D5E50493058007E3C0E5E889
:100EA80093052006E3DCE5E61307D7F91377F70F78
:100EB800D545E3E5E5E685650A079385C5202E97C0
:100EC800184302872246830516000146E39FE5FA88
:100ED8002247090755BF224705073AC485BF93052E
:100EE800700463C7E50213064004634BE6169306D5
:100EF8003004E315D7E20327030093044300A30C4F
:100F08000100230CE100BE8601472A862C08A9A00F
:100F18009305800593061004E312B7E011476313A5
:100F2800E60883250300032643009304830036C2A2
:100F38003EC00147AA87C1463245513B2A942683C1
:100F4800F1BB832503009304430081E58565938500
:100F580045204247BE862A8632455136C5B71147D5
:100F68006310E602130710068325030003264300D7
:100F7800930483003AC23EC00547AA87A9466DBFBD
:100F8800424783250300930443003AC2130710061F
:100F98003AC085462A87294632451D3945B7930602
:100FA8001006ADBF424783250300930443003AC2AD
:100FB80036C02A8781464146C5B71147631FE600F8
:100FC80013071006832503000326430093048300B8
:100FD8003AC23EC00147AA8755B742478325030056
:100FE800930443003AC2130710063AC081462A8781
:100FF8005DB7114793E74700631CE6001307100627
:101008008325030003264300930483003AC20DB7E7
:10101800424783250300930443003AC2130710068E
:101028003AC041BF11476310E60213071006832533
:10103800030003264300930483003AC23EC00147DD
:10104800AA87A146D5BD42478325030093044300E0
:101058003AC2130710063AC081462A8721462DBF97
:10106800130710048325030093048300032343001C
:101078003AC22A8732453EC01A86B687A9469139B0
:1010880075BD13071006F9BF1301C1FD2EC832CA7A
:10109800AA851008014506C636CC3ACE3ED032C0E5
:1010A8001D39B240130141028280411122C426C277
:1010B80006C683070500AA840144DC81050499EF6C
:1010C800A9479305310005460145DC81EFF05F989B
:1010D800B24022852244924441018280054693050C
:1010E80031000145EFF0DF96B3878400838707005E
:1010F800E9B7AA879823850775FF3385A7407D152B
:1011080082800000434833325630303620446963C9
:1011180065204170706C69636174696F6E205374E7
:101128006172746564202832344D487A20485349E6
:10113800290D000054657374696E6720616C6C201A
:101148004C4544732E2E2E0D000000005465737418
:10115800696E67206469636520666163653A202566
:10116800640D0A00507265737320627574746F6E33
:10117800206F6E2050433620746F20726F6C6C2085
:101188007468652064696365210D00004275747494
:101198006F6E3A2050433620E2869220427574746E
:1011A8006F6E20E2869220474E4420287769746843
:1011B8002070756C6C2D7570290D00004275747463
:1011C8006F6E20707265737365642120526F6C6C4A
:1011D800696E6720646963652E2E2E0D000000007D
:1011E8004469636520726573756C743A2025640DD3
:1011F8000A0000000004090D1B1F3F00286E756CD3
:101208006C290000FE0E0000660F00008A10000026
:101218008A1000008A100000240D0000240D000030
:10122800240D0000240D0000240D0000240D0000F2
:10123800240D00002C100000FA0F0000240D0000FF
:10124800240D00004A0F0000240D0000C20F00000A
:0C125800240D0000240D0000A60F000073
:10126400E1AC0000010203040506070801020304BF
:1012740005060708006CDC020204060804080C10CA
:101284000810182010203040204060800102030420
:10129400050607080102030405060708000000000C
:00000001FF
